:02000000FFD728
:1018280009022900010100803209040000020300B6
:101838000000092101010001222100070581034060
:0918480000010705010340000145
:101851000600FF0901A10119012940150026FF0019
:10186100750895408102190129407508954091023A
:01187100C0B6
:10187200160346006F00750072004F006E0065008F
:061882004F006E0065003E
:101888001201000200000008114113390100010291
:0218980000014D
:0C189A000C0344006F007A00650072002F
:0418A600040309042A
:020000040030CA
:0E000000210E2E1EFF8181FF0FC00FE00F406A
:00000001FF
