:10000000DBEF01F00000000000EF00F00000000056
:0A0010000000000000000000F3D71C
:0E001C00160E6F6E9F0E6B6E7B0E696E1200DD
:10002A00280E196E040E1A6E000E1B6E850E1C6EBB
:10003A00040E1D6E000E1E6E510E1F6E040E206EF3
:10004A00000E216E790E226E040E236E000E246EAF
:02005A00120092
:10005C004C6A4D6A4E6A020E4924F66E000E4A2016
:10006C00F76E000E4B20F86E0900F5CF05F0030E6D
:10007C004924F66E000E4A20F76E000E4B20F86EE7
:10008C000900F5CF00F000C003F0000E046E03C0B1
:10009C0001F0006A05500024066E000E0120076E68
:1000AC0049C008F04AC009F04BC00AF0010E082400
:1000BC00F66E000E0920F76E000E0A20F86E09008D
:1000CC00F5CF01F00150020A1BE1060E0824F66E72
:1000DC00000E0920F76E000E0A20F86E0900F5CF0D
:1000EC0001F001504C5C0CE2060E0824F66E000E7A
:1000FC000920F76E000E0A20F86E0900F5CF4CF0BF
:10010C00010E0824F66E000E0920F76E000E0A2070
:10011C00F86E0900F5CF01F00150040A1BE1080E3E
:10012C000824F66E000E0920F76E000E0A20F86EF9
:10013C000900F5CF01F001504C5C0CE2080E0824CC
:10014C00F66E000E0920F76E000E0A20F86E0900FC
:10015C00F5CF4CF008C0F6FF09C0F7FF0AC0F8FF56
:10016C000900F5CF00F000504D24016E000E4E201A
:10017C00026E01C04DF002C04EF00750025C02E16D
:10018C000650015C01E30FD008C0F6FF09C0F7FF71
:10019C000AC0F8FF0900F5CF00F000500826000E49
:0C01AC0009220A2283D74CC000F0120088
:1001B80049C002F04AC003F04CC000F04DC001F045
:1001C800010E4C5E000E4D5A0050011009E002C0AD
:1001D800E1FF03C0E2FF4BC0E6FF024A032AECD767
:0201E800120003
:0A01EA00D08EA28AA08AF28E1200C5
:1001F400670E006E040E016E000E026E0E0E0024D9
:10020400F66E000E0120F76E000E0220F86E090053
:10021400F5CF03F003C004F00F0E0024F66E000EB9
:100224000120F76E000E0220F86E0900F5CF01F0F0
:100234000150035C12E2670E006E040E016E000EA4
:10024400026E0F0E0024F66E000E0120F76E000EF3
:100254000220F86E0900F5CF04F0670E006E040E5C
:10026400016E000E026E100E0024F66E000E0120C8
:10027400F76E000E0220F86E0900F5CF01F0015070
:10028400045C12E2670E006E040E016E000E026E34
:10029400100E0024F66E000E0120F76E000E0220F0
:0E02A400F86E0900F5CF04F004C000F012005F
:1002B200A0DF00C047F0280E496E040E4A6E000E01
:1002C2004B6ECBDE00C048F04750005C03E247C0F3
:0A02D20000F002D048C000F0120056
:1002DC001550000A0AE16D6A696A9ADE80DF6DB614
:0C02EC0002D06D86FCD7010E156E1200CA
:1002F80098DE416A426A2F6A306A6A6A686A8ADEE8
:100308006D8C6E6A710E496E0F0E4A6E4B6A010E45
:100318004C6E000E4D6E4CDF6D9C476A080E475CB4
:1003280016E247C000F0000E016E0036009001365C
:10033800003600900136000E0024E16E040E012004
:10034800E26EE66AE66AE66AE66A472AE7D7160EC2
:10035800706E68A603D0F70E6816FBD72C6A336A4E
:10036800346A356A6D98080E3B6E040E3C6E3A6A24
:04037800156A1200F0
:10037C009ADF00C016F0010E176E43C027F044C080
:10038C0028F045C03FF046C040F0B0DF010E016ED2
:0A039C000150010A01E19CDF12008C
:1003A6000900F5CFE6FF0006FBE10106F9E11200C0
:1003B6000F0EC112070EB412836A956A000E436EC1
:1003C600050E446E400E456E050E466ED4DF256A58
:1003D600266A800E006E800E2618005C02E125500B
:1003E60003081DE38394020E0B6E860E0C6E990EA7
:1003F6000D6E0D2EFED70C2EFCD70B2EFAD783844E
:10040600020E0B6E860E0C6E990E0D6E0D2EFED71D
:100416000C2EFCD70B2EFAD7254A262ADAD7FFD779
:02042600FFD7FE
:1004280009022900010100803209040000020300CA
:100438000000092101010001222100070581034074
:0904480000010705010340000159
:10045100160346006F00750072004F006E006500C4
:060461004F006E00650073
:1004670012010002000000081141133901000102C6
:02047700000182
:0C0479000C0344006F007A006500720064
:04048500040309045F
:020000040030CA
:0E000000000C1F1EFF8381FF0FC00FE00F409A
:00000001FF
